:100558003F065B4F666D7D077F6F777C395E7971EB
:02056800004051
:10047E00013810013910013A10013B10013C1001F6
:10048E003D10012600013E000430AA1500BF0434C1
:10049E00AA1400BF0427AA1000BA063FAA0702003A
:1004AE0001B40645AA07020002B5064CAA070200CF
:1004BE0003B60652AA07020004B70658AA0702009E
:1004CE0005B8065EAA07020006B90664AA0702006E
:0D04DE0007BA066AAA07020008BB01250044
:10000300C2AF53890F438920759850758DFA758B4C
:0D001300FA438780D2ACD28ED29CD2AF22AD
:0A0576008F99754B01E54B70FC22D4
:0300230002056A69
:0C056A00309803C29832C299754B0032E1
:06054400D2A7C2A77F054B
:0D054A00EFD3940040077E7DDEFE1F80F39E
:010557002281
:0F040B00853B0B853C0C853D0DAB3AAD39AF38C9
:10041A00C2A6EF90055893F580D2A6C2A6C2A775C8
:10042A0080FE120544ED93F580D2A6C2A67580FD22
:10043A00120544EB93F580D2A6C2A67580FB12057D
:10044A0044E50B93F580D2A6C2A67580F71205443F
:10045A00E50C93F580D2A6C2A67580EF120544E595
:10046A000D93F580D2A6C2A67580DFD2A7C2A77F58
:04047A000502054A28
:1001AB0075B0FE85B02B532BF0E52B64F0604C7FC4
:1001BB000A12054AE52B64F0604185B02BE52B2430
:1001CB0082602124C0601624E0600B24F0701AE4D6
:1001DB00F52D052C8013752D01052C800C752D022A
:1001EB00052C8005752D03052CE52B64F0600A8525
:1001FB00B02B532BF0C2A380F0D2A375B0FD85B00A
:10020B002B532BF0E52B64F0604C7F0A12054AE56B
:10021B002B64F0604185B02BE52B2483602124C037
:10022B00601624E0600B24F0701A752D04052C80E9
:10023B0013752D05052C800C752D06052C80057569
:10024B002D07052CE52B64F0600A85B02B532BF0A2
:10025B00C2A380F0D2A375B0FB85B02B532BF0E576
:10026B002B64F0604C7F0A12054AE52B64F0604169
:10027B0085B02BE52B2485602124C0601624E0601B
:10028B000B24F0701A752D08052C8013752D09059C
:10029B002C800CD204E4F52C8005300202D205E54B
:1002AB002B64F0600A85B02B532BF0C2A380F0D2E5
:1002BB00A375B0F785B02B532BF0E52B64F06039A9
:1002CB007F0A12054AE52B64F0602E85B02BE52BD7
:1002DB002449601024E0600824F0700BD2038007DF
:1002EB00D2018003757101E52B64F0600A85B02B98
:0A02FB00532BF0C2A380F0D2A3221F
:10039100200076E52C24FE601E14602B14603814B6
:1003A100604514605224057060852D772002047524
:1003B100381122852D3822852D78E538B411047540
:1003C100391122852D3922852D21E538B411047585
:1003D1003A1122852D3A22852D22E538B411047572
:1003E1003B1122852D3B22852D23E538B41104755F
:1003F1003C1122852D3C22852D24E538B41105754B
:0A0401003D118003852D3DD200223D
:1004EC00300054E578B572047F0180027F00E57717
:1004FC00B570047E0180027E00EE5FFFE521B573CE
:10050C00047E0180027E00EE5FFFE522B574047E5E
:10051C000180027E00EE5FFFE523B575047E01804D
:10052C00027E00EE5FFFE524B576047E0180027E3C
:08053C0000EE5F6002D2022212
:10002600120003D202E4F590F52EF52FE4F525E54E
:1000360025C394045014AF2574302FF8E6FF12053B
:100046007605257F0A12054A80E5052FE52F700201
:10005600052ED3940AE52E940040D11201AB12036B
:1000660091E5717003020102E4F571C205F52C12E7
:1000760004EC300223E4F590F525AF25743F2FF804
:10008600E6FF1205760525E525C3940640EC200417
:1000960002C200E4F5268064200261200402C20048
:1000A6000526E526B40119E4F525AF2574452FF894
:1000B600E6FF1205760525E525C3940640EC803C4F
:1000C600E526B40219E4F525AF25744C2FF8E6FFB2
:1000D6001205760525E525C3940640EC801EE52627
:1000E600C394034017E4F525AF2574522FF8E6FFB5
:1000F6001205760525E525C3940640EC30041B3031
:1001060002182000151201AB120391A201720350CE
:1001160004D200800512040B80E830052BC205E4EA
:10012600F52CC204857770857872852173852274D3
:10013600852375852476753810753910753A1075CE
:100146003B10753C10753D10300325C203E4F52CB9
:10015600C200753810753910753A10753B10753C2C
:1001660010753D10F577F578F521F522F523F52480
:1001760030012CC201C204E4F52CC200C202759003
:10018600FF753810753910753A10753B10753C10AF
:10019600753D10F577F578F521F522F523F524124E
:0501A600040B020061E2
:03000000020305F3
:0C030500787FE4F6D8FD75817802034C87
:10031100020026E493A3F8E493A34003F68001F2DC
:1003210008DFF48029E493A3F85407240CC8C333ED
:10033100C4540F4420C8834004F456800146F6DFBC
:10034100E4800B010204081020408090047EE47ECA
:10035100019360BCA3FF543F30E509541FFEE493B1
:10036100A360010ECF54C025E060A840B8E493A378
:10037100FAE493A3F8E493A3C8C582C8CAC583CAA3
:10038100F0A3C8C582C8CAC583CADFE9DEE780BE5B
:0104EB000010
:00000001FF
